{
  "contractName": "Roulette",
  "abi": [
    {
      "inputs": [
        {
          "internalType": "address",
          "name": "VRFv2ConsumerAddress",
          "type": "address"
        }
      ],
      "stateMutability": "nonpayable",
      "type": "constructor"
    },
    {
      "anonymous": false,
      "inputs": [
        {
          "indexed": true,
          "internalType": "address",
          "name": "player",
          "type": "address"
        },
        {
          "indexed": false,
          "internalType": "uint256",
          "name": "betAmount",
          "type": "uint256"
        },
        {
          "indexed": false,
          "internalType": "uint256",
          "name": "betNumber",
          "type": "uint256"
        },
        {
          "indexed": false,
          "internalType": "uint256",
          "name": "requestId",
          "type": "uint256"
        }
      ],
      "name": "Bet",
      "type": "event"
    },
    {
      "anonymous": false,
      "inputs": [
        {
          "indexed": true,
          "internalType": "address",
          "name": "previousOwner",
          "type": "address"
        },
        {
          "indexed": true,
          "internalType": "address",
          "name": "newOwner",
          "type": "address"
        }
      ],
      "name": "OwnershipTransferred",
      "type": "event"
    },
    {
      "anonymous": false,
      "inputs": [
        {
          "indexed": true,
          "internalType": "address",
          "name": "player",
          "type": "address"
        },
        {
          "indexed": false,
          "internalType": "uint256",
          "name": "betNumber",
          "type": "uint256"
        },
        {
          "indexed": false,
          "internalType": "uint256",
          "name": "randomNumber",
          "type": "uint256"
        },
        {
          "indexed": false,
          "internalType": "uint256",
          "name": "betAmount",
          "type": "uint256"
        },
        {
          "indexed": false,
          "internalType": "uint256",
          "name": "prize",
          "type": "uint256"
        }
      ],
      "name": "Reveal",
      "type": "event"
    },
    {
      "stateMutability": "payable",
      "type": "fallback"
    },
    {
      "inputs": [],
      "name": "owner",
      "outputs": [
        {
          "internalType": "address",
          "name": "",
          "type": "address"
        }
      ],
      "stateMutability": "view",
      "type": "function"
    },
    {
      "inputs": [],
      "name": "renounceOwnership",
      "outputs": [],
      "stateMutability": "nonpayable",
      "type": "function"
    },
    {
      "inputs": [
        {
          "internalType": "address",
          "name": "newOwner",
          "type": "address"
        }
      ],
      "name": "transferOwnership",
      "outputs": [],
      "stateMutability": "nonpayable",
      "type": "function"
    },
    {
      "stateMutability": "payable",
      "type": "receive"
    },
    {
      "inputs": [],
      "name": "isBetting",
      "outputs": [
        {
          "internalType": "bool",
          "name": "",
          "type": "bool"
        }
      ],
      "stateMutability": "view",
      "type": "function"
    },
    {
      "inputs": [],
      "name": "withdraw",
      "outputs": [],
      "stateMutability": "nonpayable",
      "type": "function"
    },
    {
      "inputs": [
        {
          "internalType": "uint256",
          "name": "number",
          "type": "uint256"
        }
      ],
      "name": "bet",
      "outputs": [],
      "stateMutability": "payable",
      "type": "function"
    },
    {
      "inputs": [],
      "name": "reveal",
      "outputs": [],
      "stateMutability": "nonpayable",
      "type": "function"
    }
  ],
  "bytecode": "0x60806040523480156200001157600080fd5b5060405162001958380380620019588339818101604052810190620000379190620001d5565b620000576200004b6200009f60201b60201c565b620000a760201b60201c565b80600260006101000a81548173ffffffffffffffffffffffffffffffffffffffff021916908373ffffffffffffffffffffffffffffffffffffffff1602179055505062000207565b600033905090565b60008060009054906101000a900473ffffffffffffffffffffffffffffffffffffffff169050816000806101000a81548173ffffffffffffffffffffffffffffffffffffffff021916908373ffffffffffffffffffffffffffffffffffffffff1602179055508173ffffffffffffffffffffffffffffffffffffffff168173ffffffffffffffffffffffffffffffffffffffff167f8be0079c531659141344cd1fd0a4f28419497f9722a3daafe3b4186f6b6457e060405160405180910390a35050565b600080fd5b600073ffffffffffffffffffffffffffffffffffffffff82169050919050565b60006200019d8262000170565b9050919050565b620001af8162000190565b8114620001bb57600080fd5b50565b600081519050620001cf81620001a4565b92915050565b600060208284031215620001ee57620001ed6200016b565b5b6000620001fe84828501620001be565b91505092915050565b61174180620002176000396000f3fe6080604052600436106100745760003560e01c80638da5cb5b1161004e5780638da5cb5b146100e1578063a31093ec1461010c578063a475b5dd14610137578063f2fde38b1461014e57610095565b80633ccfd60b14610097578063715018a6146100ae5780637365870b146100c557610095565b366100955761008e3460035461017790919063ffffffff16565b6003819055005b005b3480156100a357600080fd5b506100ac61018d565b005b3480156100ba57600080fd5b506100c3610269565b005b6100df60048036038101906100da9190611024565b6102f1565b005b3480156100ed57600080fd5b506100f66106c9565b6040516101039190611092565b60405180910390f35b34801561011857600080fd5b506101216106f2565b60405161012e91906110c8565b60405180910390f35b34801561014357600080fd5b5061014c610749565b005b34801561015a57600080fd5b506101756004803603810190610170919061110f565b610de4565b005b60008183610185919061116b565b905092915050565b610195610edb565b73ffffffffffffffffffffffffffffffffffffffff166101b36106c9565b73ffffffffffffffffffffffffffffffffffffffff1614610209576040517f08c379a00000000000000000000000000000000000000000000000000000000081526004016102009061121e565b60405180910390fd5b60006102136106c9565b90508073ffffffffffffffffffffffffffffffffffffffff166108fc6003549081150290604051600060405180830381858888f1935050505015801561025d573d6000803e3d6000fd5b50600060038190555050565b610271610edb565b73ffffffffffffffffffffffffffffffffffffffff1661028f6106c9565b73ffffffffffffffffffffffffffffffffffffffff16146102e5576040517f08c379a00000000000000000000000000000000000000000000000000000000081526004016102dc9061121e565b60405180910390fd5b6102ef6000610ee3565b565b600061030c655af3107a400034610fa790919063ffffffff16565b1461034c576040517f08c379a00000000000000000000000000000000000000000000000000000000081526004016103439061128a565b60405180910390fd5b600160003373ffffffffffffffffffffffffffffffffffffffff1673ffffffffffffffffffffffffffffffffffffffff16815260200190815260200160002060000160149054906101000a900460ff16156103dc576040517f08c379a00000000000000000000000000000000000000000000000000000000081526004016103d3906112f6565b60405180910390fd5b8060001080156103ed575060028111155b61042c576040517f08c379a000000000000000000000000000000000000000000000000000000000815260040161042390611388565b60405180910390fd5b6000600260009054906101000a900473ffffffffffffffffffffffffffffffffffffffff1673ffffffffffffffffffffffffffffffffffffffff1663e0c862896040518163ffffffff1660e01b81526004016020604051808303816000875af115801561049d573d6000803e3d6000fd5b505050506040513d601f19601f820116820180604052508101906104c191906113bd565b905033600160003373ffffffffffffffffffffffffffffffffffffffff1673ffffffffffffffffffffffffffffffffffffffff16815260200190815260200160002060000160006101000a81548173ffffffffffffffffffffffffffffffffffffffff021916908373ffffffffffffffffffffffffffffffffffffffff16021790555060018060003373ffffffffffffffffffffffffffffffffffffffff1673ffffffffffffffffffffffffffffffffffffffff16815260200190815260200160002060000160146101000a81548160ff02191690831515021790555034600160003373ffffffffffffffffffffffffffffffffffffffff1673ffffffffffffffffffffffffffffffffffffffff1681526020019081526020016000206001018190555081600160003373ffffffffffffffffffffffffffffffffffffffff1673ffffffffffffffffffffffffffffffffffffffff1681526020019081526020016000206002018190555080600160003373ffffffffffffffffffffffffffffffffffffffff1673ffffffffffffffffffffffffffffffffffffffff168152602001908152602001600020600301819055503373ffffffffffffffffffffffffffffffffffffffff167f97371a3349bea11f577edf6e64350a3dfb9de665d1154c7e6d08eb0805aa04303484846040516106bd939291906113f9565b60405180910390a25050565b60008060009054906101000a900473ffffffffffffffffffffffffffffffffffffffff16905090565b6000600160003373ffffffffffffffffffffffffffffffffffffffff1673ffffffffffffffffffffffffffffffffffffffff16815260200190815260200160002060000160149054906101000a900460ff16905090565b600160003373ffffffffffffffffffffffffffffffffffffffff1673ffffffffffffffffffffffffffffffffffffffff16815260200190815260200160002060000160149054906101000a900460ff166107d8576040517f08c379a00000000000000000000000000000000000000000000000000000000081526004016107cf9061147c565b60405180910390fd5b6000600160003373ffffffffffffffffffffffffffffffffffffffff1673ffffffffffffffffffffffffffffffffffffffff1681526020019081526020016000206003015490506000600260009054906101000a900473ffffffffffffffffffffffffffffffffffffffff1673ffffffffffffffffffffffffffffffffffffffff1663cd4b6914836040518263ffffffff1660e01b815260040161087c919061149c565b602060405180830381865afa158015610899573d6000803e3d6000fd5b505050506040513d601f19601f820116820180604052508101906108bd91906113bd565b905060008103610902576040517f08c379a00000000000000000000000000000000000000000000000000000000081526004016108f990611529565b60405180910390fd5b600061092b600161091d600285610fa790919063ffffffff16565b61017790919063ffffffff16565b90506000600160003373ffffffffffffffffffffffffffffffffffffffff1673ffffffffffffffffffffffffffffffffffffffff168152602001908152602001600020600201548203610a91576109e160026109d36003600160003373ffffffffffffffffffffffffffffffffffffffff1673ffffffffffffffffffffffffffffffffffffffff16815260200190815260200160002060010154610fbd90919063ffffffff16565b610fd390919063ffffffff16565b9050600160003373ffffffffffffffffffffffffffffffffffffffff1673ffffffffffffffffffffffffffffffffffffffff16815260200190815260200160002060000160009054906101000a900473ffffffffffffffffffffffffffffffffffffffff1673ffffffffffffffffffffffffffffffffffffffff166108fc829081150290604051600060405180830381858888f19350505050158015610a8b573d6000803e3d6000fd5b50610aef565b610ae8600160003373ffffffffffffffffffffffffffffffffffffffff1673ffffffffffffffffffffffffffffffffffffffff1681526020019081526020016000206001015460035461017790919063ffffffff16565b6003819055505b600160003373ffffffffffffffffffffffffffffffffffffffff1673ffffffffffffffffffffffffffffffffffffffff16815260200190815260200160002060000160009054906101000a900473ffffffffffffffffffffffffffffffffffffffff1673ffffffffffffffffffffffffffffffffffffffff167ffd7e6f71a6018d7c9db39f766d1362760a59d8f1dca01d42ba6de6c45608fc18600160003373ffffffffffffffffffffffffffffffffffffffff1673ffffffffffffffffffffffffffffffffffffffff1681526020019081526020016000206002015484600160003373ffffffffffffffffffffffffffffffffffffffff1673ffffffffffffffffffffffffffffffffffffffff1681526020019081526020016000206001015485604051610c219493929190611549565b60405180910390a26000600160003373ffffffffffffffffffffffffffffffffffffffff1673ffffffffffffffffffffffffffffffffffffffff16815260200190815260200160002060000160006101000a81548173ffffffffffffffffffffffffffffffffffffffff021916908373ffffffffffffffffffffffffffffffffffffffff1602179055506000600160003373ffffffffffffffffffffffffffffffffffffffff1673ffffffffffffffffffffffffffffffffffffffff168152602001908152602001600020600201819055506000600160003373ffffffffffffffffffffffffffffffffffffffff1673ffffffffffffffffffffffffffffffffffffffff16815260200190815260200160002060000160146101000a81548160ff0219169083151502179055506000600160003373ffffffffffffffffffffffffffffffffffffffff1673ffffffffffffffffffffffffffffffffffffffff168152602001908152602001600020600101819055506000600160003373ffffffffffffffffffffffffffffffffffffffff1673ffffffffffffffffffffffffffffffffffffffff1681526020019081526020016000206003018190555050505050565b610dec610edb565b73ffffffffffffffffffffffffffffffffffffffff16610e0a6106c9565b73ffffffffffffffffffffffffffffffffffffffff1614610e60576040517f08c379a0000000000000000000000000000000000000000000000000000000008152600401610e579061121e565b60405180910390fd5b600073ffffffffffffffffffffffffffffffffffffffff168173ffffffffffffffffffffffffffffffffffffffff1603610ecf576040517f08c379a0000000000000000000000000000000000000000000000000000000008152600401610ec690611600565b60405180910390fd5b610ed881610ee3565b50565b600033905090565b60008060009054906101000a900473ffffffffffffffffffffffffffffffffffffffff169050816000806101000a81548173ffffffffffffffffffffffffffffffffffffffff021916908373ffffffffffffffffffffffffffffffffffffffff1602179055508173ffffffffffffffffffffffffffffffffffffffff168173ffffffffffffffffffffffffffffffffffffffff167f8be0079c531659141344cd1fd0a4f28419497f9722a3daafe3b4186f6b6457e060405160405180910390a35050565b60008183610fb5919061164f565b905092915050565b60008183610fcb9190611680565b905092915050565b60008183610fe191906116da565b905092915050565b600080fd5b6000819050919050565b61100181610fee565b811461100c57600080fd5b50565b60008135905061101e81610ff8565b92915050565b60006020828403121561103a57611039610fe9565b5b60006110488482850161100f565b91505092915050565b600073ffffffffffffffffffffffffffffffffffffffff82169050919050565b600061107c82611051565b9050919050565b61108c81611071565b82525050565b60006020820190506110a76000830184611083565b92915050565b60008115159050919050565b6110c2816110ad565b82525050565b60006020820190506110dd60008301846110b9565b92915050565b6110ec81611071565b81146110f757600080fd5b50565b600081359050611109816110e3565b92915050565b60006020828403121561112557611124610fe9565b5b6000611133848285016110fa565b91505092915050565b7f4e487b7100000000000000000000000000000000000000000000000000000000600052601160045260246000fd5b600061117682610fee565b915061118183610fee565b9250827fffffffffffffffffffffffffffffffffffffffffffffffffffffffffffffffff038211156111b6576111b561113c565b5b828201905092915050565b600082825260208201905092915050565b7f4f776e61626c653a2063616c6c6572206973206e6f7420746865206f776e6572600082015250565b60006112086020836111c1565b9150611213826111d2565b602082019050919050565b60006020820190508181036000830152611237816111fb565b9050919050565b7f526f756c657474653a2076616c756520697320696e76616c6964000000000000600082015250565b6000611274601a836111c1565b915061127f8261123e565b602082019050919050565b600060208201905081810360008301526112a381611267565b9050919050565b7f526f756c657474653a20796f7520616c72656164792062657400000000000000600082015250565b60006112e06019836111c1565b91506112eb826112aa565b602082019050919050565b6000602082019050818103600083015261130f816112d3565b9050919050565b7f526f756c657474653a2073656c6563746564206e756d626572206973206f757460008201527f206f662072616e67650000000000000000000000000000000000000000000000602082015250565b60006113726029836111c1565b915061137d82611316565b604082019050919050565b600060208201905081810360008301526113a181611365565b9050919050565b6000815190506113b781610ff8565b92915050565b6000602082840312156113d3576113d2610fe9565b5b60006113e1848285016113a8565b91505092915050565b6113f381610fee565b82525050565b600060608201905061140e60008301866113ea565b61141b60208301856113ea565b61142860408301846113ea565b949350505050565b7f526f756c657474653a20796f7520646964206e6f742062657420796574000000600082015250565b6000611466601d836111c1565b915061147182611430565b602082019050919050565b6000602082019050818103600083015261149581611459565b9050919050565b60006020820190506114b160008301846113ea565b92915050565b7f526f756c657474653a2067616d6520646f6573206e6f742066696e697368656460008201527f2079657400000000000000000000000000000000000000000000000000000000602082015250565b60006115136024836111c1565b915061151e826114b7565b604082019050919050565b6000602082019050818103600083015261154281611506565b9050919050565b600060808201905061155e60008301876113ea565b61156b60208301866113ea565b61157860408301856113ea565b61158560608301846113ea565b95945050505050565b7f4f776e61626c653a206e6577206f776e657220697320746865207a65726f206160008201527f6464726573730000000000000000000000000000000000000000000000000000602082015250565b60006115ea6026836111c1565b91506115f58261158e565b604082019050919050565b60006020820190508181036000830152611619816115dd565b9050919050565b7f4e487b7100000000000000000000000000000000000000000000000000000000600052601260045260246000fd5b600061165a82610fee565b915061166583610fee565b92508261167557611674611620565b5b828206905092915050565b600061168b82610fee565b915061169683610fee565b9250817fffffffffffffffffffffffffffffffffffffffffffffffffffffffffffffffff04831182151516156116cf576116ce61113c565b5b828202905092915050565b60006116e582610fee565b91506116f083610fee565b925082611700576116ff611620565b5b82820490509291505056fea26469706673582212203cc92c6030a4a35abba00fc53a760f340cf2b89b5f7798ee6fb03f4ed5110fe964736f6c634300080d0033",
  "immutableReferences": {},
  "source": "//SPDX-License-Identifier:MIT\npragma solidity ^0.8.0;\n\nimport \"@openzeppelin/contracts/access/Ownable.sol\";\nimport \"@openzeppelin/contracts/utils/math/SafeMath.sol\";\nimport \"./VRFv2Consumer.sol\";\n\ncontract Roulette is Ownable {\n\n    using SafeMath for uint256;\n\n    struct State {\n        address player;     // player's address\n        bool isBetting;     // status if betting\n        uint256 betAmount;  // bet amount\n        uint256 betNumber;  // selected number\n        uint256 requestId;  // request id for vrf\n    }\n\n    mapping(address => State) private _states;\n    VRFv2Consumer private _VRFv2Consumer;\n    uint256 constant private BET_UNIT = 0.0001 ether;\n    uint256 constant private MAX = 2;\n    uint256 private _withdrawableAmount;\n\n    event Bet(address indexed player, uint256 betAmount, uint256 betNumber, uint256 requestId);\n    event Reveal(address indexed player, uint256 betNumber, uint256 randomNumber, uint256 betAmount, uint256 prize);\n\n    constructor(address VRFv2ConsumerAddress){\n        _VRFv2Consumer = VRFv2Consumer(VRFv2ConsumerAddress);\n    }\n\n    receive() external payable {\n        _withdrawableAmount = _withdrawableAmount.add(msg.value);\n    }\n\n    fallback() external payable {}\n\n    function isBetting() external view returns (bool){\n        return _states[msg.sender].isBetting;\n    }\n\n    function withdraw() external onlyOwner {\n        address owner_ = owner();\n        payable(owner_).transfer(_withdrawableAmount);\n        _withdrawableAmount = 0;\n    }\n\n    function bet(uint256 number) public payable {\n        require(msg.value.mod(BET_UNIT) == 0, \"Roulette: value is invalid\");\n        require(!_states[msg.sender].isBetting, \"Roulette: you already bet\");\n        require(0 < number && number <= MAX, \"Roulette: selected number is out of range\");\n        uint256 requestId;\n        requestId = _VRFv2Consumer.requestRandomWords();\n\n        _states[msg.sender].player = msg.sender;\n        _states[msg.sender].isBetting = true;\n        _states[msg.sender].betAmount = msg.value;\n        _states[msg.sender].betNumber = number;\n        _states[msg.sender].requestId = requestId;\n\n        emit Bet(msg.sender, msg.value, number, requestId);\n    }\n\n    function reveal() public {\n        require(_states[msg.sender].isBetting, \"Roulette: you did not bet yet\");\n\n        uint256 requestId = _states[msg.sender].requestId;\n        uint256 random = _VRFv2Consumer.getRandom(requestId);\n\n        require(random != 0, \"Roulette: game does not finished yet\");\n\n        uint256 randomRanged = random.mod(MAX).add(1);\n        uint256 prize = 0;\n        if (randomRanged == _states[msg.sender].betNumber) {\n            prize = _states[msg.sender].betAmount.mul(3).div(2);\n            payable(_states[msg.sender].player).transfer(prize);\n        }\n        else {\n            _withdrawableAmount = _withdrawableAmount.add(_states[msg.sender].betAmount);\n        }\n\n        emit Reveal(_states[msg.sender].player, _states[msg.sender].betNumber, randomRanged, _states[msg.sender].betAmount, prize);\n\n        _states[msg.sender].player = address(0);\n        _states[msg.sender].betNumber = 0;\n        _states[msg.sender].isBetting = false;\n        _states[msg.sender].betAmount = 0;\n        _states[msg.sender].requestId = 0;\n    }\n}\n",
  "sourcePath": "C:\\Users\\dlscj\\IdeaProjects\\Roulette-Contracts\\contracts\\Roulette.sol",
  "compiler": {
    "name": "solc",
    "version": "0.8.13+commit.abaa5c0e.Emscripten.clang"
  },
  "schemaVersion": "3.4.7",
  "updatedAt": "2022-05-25T19:23:06.954Z",
  "devdoc": {
    "kind": "dev",
    "methods": {
      "owner()": {
        "details": "Returns the address of the current owner."
      },
      "renounceOwnership()": {
        "details": "Leaves the contract without owner. It will not be possible to call `onlyOwner` functions anymore. Can only be called by the current owner. NOTE: Renouncing ownership will leave the contract without an owner, thereby removing any functionality that is only available to the owner."
      },
      "transferOwnership(address)": {
        "details": "Transfers ownership of the contract to a new account (`newOwner`). Can only be called by the current owner."
      }
    },
    "version": 1
  },
  "userdoc": {
    "kind": "user",
    "methods": {},
    "version": 1
  }
}