{
  "contractName": "VRFv2Consumer",
  "abi": [
    {
      "inputs": [
        {
          "internalType": "uint64",
          "name": "subscriptionId",
          "type": "uint64"
        }
      ],
      "stateMutability": "nonpayable",
      "type": "constructor"
    },
    {
      "inputs": [
        {
          "internalType": "address",
          "name": "have",
          "type": "address"
        },
        {
          "internalType": "address",
          "name": "want",
          "type": "address"
        }
      ],
      "name": "OnlyCoordinatorCanFulfill",
      "type": "error"
    },
    {
      "anonymous": false,
      "inputs": [
        {
          "indexed": true,
          "internalType": "address",
          "name": "previousOwner",
          "type": "address"
        },
        {
          "indexed": true,
          "internalType": "address",
          "name": "newOwner",
          "type": "address"
        }
      ],
      "name": "OwnershipTransferred",
      "type": "event"
    },
    {
      "inputs": [],
      "name": "owner",
      "outputs": [
        {
          "internalType": "address",
          "name": "",
          "type": "address"
        }
      ],
      "stateMutability": "view",
      "type": "function"
    },
    {
      "inputs": [
        {
          "internalType": "uint256",
          "name": "requestId",
          "type": "uint256"
        },
        {
          "internalType": "uint256[]",
          "name": "randomWords",
          "type": "uint256[]"
        }
      ],
      "name": "rawFulfillRandomWords",
      "outputs": [],
      "stateMutability": "nonpayable",
      "type": "function"
    },
    {
      "inputs": [],
      "name": "renounceOwnership",
      "outputs": [],
      "stateMutability": "nonpayable",
      "type": "function"
    },
    {
      "inputs": [
        {
          "internalType": "address",
          "name": "newOwner",
          "type": "address"
        }
      ],
      "name": "transferOwnership",
      "outputs": [],
      "stateMutability": "nonpayable",
      "type": "function"
    },
    {
      "inputs": [],
      "name": "requestRandomWords",
      "outputs": [
        {
          "internalType": "uint256",
          "name": "",
          "type": "uint256"
        }
      ],
      "stateMutability": "nonpayable",
      "type": "function"
    },
    {
      "inputs": [
        {
          "internalType": "uint256",
          "name": "requestId",
          "type": "uint256"
        }
      ],
      "name": "getRandom",
      "outputs": [
        {
          "internalType": "uint256",
          "name": "",
          "type": "uint256"
        }
      ],
      "stateMutability": "view",
      "type": "function"
    },
    {
      "inputs": [
        {
          "internalType": "address",
          "name": "contractAddress",
          "type": "address"
        }
      ],
      "name": "setContractAddress",
      "outputs": [],
      "stateMutability": "nonpayable",
      "type": "function"
    }
  ],
  "bytecode": "0x60a0604052736168499c0cffcacd319c818142124b7a15e857ab600260006101000a81548173ffffffffffffffffffffffffffffffffffffffff021916908373ffffffffffffffffffffffffffffffffffffffff1602179055507fd89b2bf150e3b9e13446986e571fb9cab24b13cea0a43ea20a6049a85cc807cc60001b600355620186a0600460006101000a81548163ffffffff021916908363ffffffff16021790555060036004806101000a81548161ffff021916908361ffff1602179055506001600460066101000a81548163ffffffff021916908363ffffffff1602179055503480156100ef57600080fd5b5060405161101738038061101783398181016040528101906101119190610328565b600260009054906101000a900473ffffffffffffffffffffffffffffffffffffffff168073ffffffffffffffffffffffffffffffffffffffff1660808173ffffffffffffffffffffffffffffffffffffffff16815250505061018561017a61021760201b60201c565b61021f60201b60201c565b600260009054906101000a900473ffffffffffffffffffffffffffffffffffffffff16600160006101000a81548173ffffffffffffffffffffffffffffffffffffffff021916908373ffffffffffffffffffffffffffffffffffffffff16021790555080600160146101000a81548167ffffffffffffffff021916908367ffffffffffffffff16021790555050610355565b600033905090565b60008060009054906101000a900473ffffffffffffffffffffffffffffffffffffffff169050816000806101000a81548173ffffffffffffffffffffffffffffffffffffffff021916908373ffffffffffffffffffffffffffffffffffffffff1602179055508173ffffffffffffffffffffffffffffffffffffffff168173ffffffffffffffffffffffffffffffffffffffff167f8be0079c531659141344cd1fd0a4f28419497f9722a3daafe3b4186f6b6457e060405160405180910390a35050565b600080fd5b600067ffffffffffffffff82169050919050565b610305816102e8565b811461031057600080fd5b50565b600081519050610322816102fc565b92915050565b60006020828403121561033e5761033d6102e3565b5b600061034c84828501610313565b91505092915050565b608051610ca06103776000396000818161014e01526101a20152610ca06000f3fe608060405234801561001057600080fd5b506004361061007d5760003560e01c80638da5cb5b1161005b5780638da5cb5b146100c4578063cd4b6914146100e2578063e0c8628914610112578063f2fde38b146101305761007d565b80631fe543e314610082578063477bddaa1461009e578063715018a6146100ba575b600080fd5b61009c6004803603810190610097919061088e565b61014c565b005b6100b860048036038101906100b39190610948565b61020c565b005b6100c26102cc565b005b6100cc610354565b6040516100d99190610984565b60405180910390f35b6100fc60048036038101906100f7919061099f565b61037d565b60405161010991906109db565b60405180910390f35b61011a61039a565b60405161012791906109db565b60405180910390f35b61014a60048036038101906101459190610948565b6104f1565b005b7f000000000000000000000000000000000000000000000000000000000000000073ffffffffffffffffffffffffffffffffffffffff163373ffffffffffffffffffffffffffffffffffffffff16146101fe57337f00000000000000000000000000000000000000000000000000000000000000006040517f1cf993f40000000000000000000000000000000000000000000000000000000081526004016101f59291906109f6565b60405180910390fd5b61020882826105e8565b5050565b61021461061f565b73ffffffffffffffffffffffffffffffffffffffff16610232610354565b73ffffffffffffffffffffffffffffffffffffffff1614610288576040517f08c379a000000000000000000000000000000000000000000000000000000000815260040161027f90610a7c565b60405180910390fd5b80600660006101000a81548173ffffffffffffffffffffffffffffffffffffffff021916908373ffffffffffffffffffffffffffffffffffffffff16021790555050565b6102d461061f565b73ffffffffffffffffffffffffffffffffffffffff166102f2610354565b73ffffffffffffffffffffffffffffffffffffffff1614610348576040517f08c379a000000000000000000000000000000000000000000000000000000000815260040161033f90610a7c565b60405180910390fd5b6103526000610627565b565b60008060009054906101000a900473ffffffffffffffffffffffffffffffffffffffff16905090565b600060056000838152602001908152602001600020549050919050565b6000600660009054906101000a900473ffffffffffffffffffffffffffffffffffffffff1673ffffffffffffffffffffffffffffffffffffffff163373ffffffffffffffffffffffffffffffffffffffff16146103f657600080fd5b6000600160009054906101000a900473ffffffffffffffffffffffffffffffffffffffff1673ffffffffffffffffffffffffffffffffffffffff16635d3b1d30600354600160149054906101000a900467ffffffffffffffff1660048054906101000a900461ffff16600460009054906101000a900463ffffffff16600460069054906101000a900463ffffffff166040518663ffffffff1660e01b81526004016104a5959493929190610b14565b6020604051808303816000875af11580156104c4573d6000803e3d6000fd5b505050506040513d601f19601f820116820180604052508101906104e89190610b7c565b90508091505090565b6104f961061f565b73ffffffffffffffffffffffffffffffffffffffff16610517610354565b73ffffffffffffffffffffffffffffffffffffffff161461056d576040517f08c379a000000000000000000000000000000000000000000000000000000000815260040161056490610a7c565b60405180910390fd5b600073ffffffffffffffffffffffffffffffffffffffff168173ffffffffffffffffffffffffffffffffffffffff16036105dc576040517f08c379a00000000000000000000000000000000000000000000000000000000081526004016105d390610c1b565b60405180910390fd5b6105e581610627565b50565b806000815181106105fc576105fb610c3b565b5b602002602001015160056000848152602001908152602001600020819055505050565b600033905090565b60008060009054906101000a900473ffffffffffffffffffffffffffffffffffffffff169050816000806101000a81548173ffffffffffffffffffffffffffffffffffffffff021916908373ffffffffffffffffffffffffffffffffffffffff1602179055508173ffffffffffffffffffffffffffffffffffffffff168173ffffffffffffffffffffffffffffffffffffffff167f8be0079c531659141344cd1fd0a4f28419497f9722a3daafe3b4186f6b6457e060405160405180910390a35050565b6000604051905090565b600080fd5b600080fd5b6000819050919050565b610712816106ff565b811461071d57600080fd5b50565b60008135905061072f81610709565b92915050565b600080fd5b6000601f19601f8301169050919050565b7f4e487b7100000000000000000000000000000000000000000000000000000000600052604160045260246000fd5b6107838261073a565b810181811067ffffffffffffffff821117156107a2576107a161074b565b5b80604052505050565b60006107b56106eb565b90506107c1828261077a565b919050565b600067ffffffffffffffff8211156107e1576107e061074b565b5b602082029050602081019050919050565b600080fd5b600061080a610805846107c6565b6107ab565b9050808382526020820190506020840283018581111561082d5761082c6107f2565b5b835b8181101561085657806108428882610720565b84526020840193505060208101905061082f565b5050509392505050565b600082601f83011261087557610874610735565b5b81356108858482602086016107f7565b91505092915050565b600080604083850312156108a5576108a46106f5565b5b60006108b385828601610720565b925050602083013567ffffffffffffffff8111156108d4576108d36106fa565b5b6108e085828601610860565b9150509250929050565b600073ffffffffffffffffffffffffffffffffffffffff82169050919050565b6000610915826108ea565b9050919050565b6109258161090a565b811461093057600080fd5b50565b6000813590506109428161091c565b92915050565b60006020828403121561095e5761095d6106f5565b5b600061096c84828501610933565b91505092915050565b61097e8161090a565b82525050565b60006020820190506109996000830184610975565b92915050565b6000602082840312156109b5576109b46106f5565b5b60006109c384828501610720565b91505092915050565b6109d5816106ff565b82525050565b60006020820190506109f060008301846109cc565b92915050565b6000604082019050610a0b6000830185610975565b610a186020830184610975565b9392505050565b600082825260208201905092915050565b7f4f776e61626c653a2063616c6c6572206973206e6f7420746865206f776e6572600082015250565b6000610a66602083610a1f565b9150610a7182610a30565b602082019050919050565b60006020820190508181036000830152610a9581610a59565b9050919050565b6000819050919050565b610aaf81610a9c565b82525050565b600067ffffffffffffffff82169050919050565b610ad281610ab5565b82525050565b600061ffff82169050919050565b610aef81610ad8565b82525050565b600063ffffffff82169050919050565b610b0e81610af5565b82525050565b600060a082019050610b296000830188610aa6565b610b366020830187610ac9565b610b436040830186610ae6565b610b506060830185610b05565b610b5d6080830184610b05565b9695505050505050565b600081519050610b7681610709565b92915050565b600060208284031215610b9257610b916106f5565b5b6000610ba084828501610b67565b91505092915050565b7f4f776e61626c653a206e6577206f776e657220697320746865207a65726f206160008201527f6464726573730000000000000000000000000000000000000000000000000000602082015250565b6000610c05602683610a1f565b9150610c1082610ba9565b604082019050919050565b60006020820190508181036000830152610c3481610bf8565b9050919050565b7f4e487b7100000000000000000000000000000000000000000000000000000000600052603260045260246000fdfea2646970667358221220486587642379b1cd15c1b3f455a5b56c751c78e8eaf070b8843a299a82959cf464736f6c634300080d0033",
  "immutableReferences": {
    "10": [
      {
        "length": 32,
        "start": 334
      },
      {
        "length": 32,
        "start": 418
      }
    ]
  },
  "source": "//SPDX-License-Identifier: MIT\npragma solidity ^0.8.0;\n\nimport \"@chainlink/contracts/src/v0.8/VRFConsumerBaseV2.sol\";\nimport \"@chainlink/contracts/src/v0.8/interfaces/VRFCoordinatorV2Interface.sol\";\nimport \"@openzeppelin/contracts/access/Ownable.sol\";\n\ncontract VRFv2Consumer is VRFConsumerBaseV2, Ownable {\n    VRFCoordinatorV2Interface COORDINATOR;\n\n    // VRF subscription ID.\n    uint64 private _subscriptionId;\n\n    // Fuji coordinator\n    address private _vrfCoordinator = 0x6168499c0cFfCaCD319c818142124B7A15E857ab;\n\n    // The gas lane to use, which specifies the maximum gas price to bump to\n    bytes32 private _keyHash = 0xd89b2bf150e3b9e13446986e571fb9cab24b13cea0a43ea20a6049a85cc807cc;\n\n    // Depends on the number of requested values that you want sent to the\n    // fulfillRandomWords() function. Storing each word costs about 20,000 gas,\n    // so 100,000 is a safe default for this example contract. Test and adjust\n    // this limit based on the network that you select, the size of the request,\n    // and the processing of the callback request in the fulfillRandomWords()\n    // function.\n    uint32 private _callbackGasLimit = 100000;\n\n    // The default is 3, but you can set this higher.\n    uint16 private _requestConfirmations = 3;\n\n    // For this example, retrieve 2 random values in one request.\n    // Cannot exceed VRFCoordinatorV2.MAX_NUM_WORDS.\n    uint32 private _numWords = 1;\n\n    // requestId => randomWord\n    mapping(uint256 => uint256) private _randomWords;\n\n    address private _contractAddress;\n\n    modifier onlyContract() {\n        require(msg.sender == _contractAddress);\n        _;\n    }\n\n    constructor(uint64 subscriptionId) VRFConsumerBaseV2(_vrfCoordinator) {\n        COORDINATOR = VRFCoordinatorV2Interface(_vrfCoordinator);\n        _subscriptionId = subscriptionId;\n    }\n\n    // Assumes the subscription is funded sufficiently.\n    function requestRandomWords() external onlyContract returns (uint256){\n        // Will revert if subscription is not set and funded.\n        uint256 requestId = COORDINATOR.requestRandomWords(\n            _keyHash,\n            _subscriptionId,\n            _requestConfirmations,\n            _callbackGasLimit,\n            _numWords\n        );\n        return requestId;\n    }\n\n    function getRandom(uint256 requestId) public view returns (uint256){\n        return _randomWords[requestId];\n    }\n\n    function setContractAddress(address contractAddress) public onlyOwner {\n        _contractAddress = contractAddress;\n    }\n\n    function fulfillRandomWords(uint256 requestId, uint256[] memory randomWords) internal override {\n        _randomWords[requestId] = randomWords[0];\n    }\n}\n",
  "sourcePath": "C:\\Users\\dlscj\\IdeaProjects\\Roulette-Contracts\\contracts\\VRFv2Consumer.sol",
  "compiler": {
    "name": "solc",
    "version": "0.8.13+commit.abaa5c0e.Emscripten.clang"
  },
  "schemaVersion": "3.4.7",
  "updatedAt": "2022-05-25T19:23:06.962Z",
  "devdoc": {
    "kind": "dev",
    "methods": {
      "owner()": {
        "details": "Returns the address of the current owner."
      },
      "renounceOwnership()": {
        "details": "Leaves the contract without owner. It will not be possible to call `onlyOwner` functions anymore. Can only be called by the current owner. NOTE: Renouncing ownership will leave the contract without an owner, thereby removing any functionality that is only available to the owner."
      },
      "transferOwnership(address)": {
        "details": "Transfers ownership of the contract to a new account (`newOwner`). Can only be called by the current owner."
      }
    },
    "version": 1
  },
  "userdoc": {
    "kind": "user",
    "methods": {},
    "version": 1
  }
}